:200000003FCDB7C0B6C0B5C0B4C0BBC6B2C0B1C0B0C0AFC0AEC0ADC0ACC0D8C7FCC6000013
:200020000000000000000000000000000000000000000000000001010101010101010101B6
:20004000010102020202020202020303030303030404040405050505050606060607070726
:200060000808080909090A0A0A0B0B0B0C0C0D0D0D0E0E0F0F1010111112121313141415CC
:2000800015161617181819191A1B1B1C1D1D1E1F1F2021222223242526262728292A2A2B70
:2000A0002C2D2E2F303132333435363738393A3B3C3D3E3F4041424445464748494B4C4DC4
:2000C0004E50515254555658595A5C5D5E606163646667696A6C6D6F7072737577787A7C9F
:2000E0007D7F8182848688898B8D8F91929496989A9C9EA0A2A4A6A8AAACAEB0B2B4B6B8CA
:20010000BABCBFC1C3C5C7CACCCED1D3D5D7DADCDFE1E3E6E8EBEDF0F2F5F7FAFCFF000024
:200120000000370000000000380002020202020201020408102001030000040011241FBEEB
:20014000CFE5D2E0DEBFCDBF10E0A0E6B0E0E4E4F7E102C005900D92A638B107D9F720E00E
:20016000A6E8B0E001C01D92A43DB207E1F784D7E7CA46CF3FB7F8948091CC009091CD0011
:20018000A091CE00B091CF0022B708B601FE05C02F3F19F00196A11DB11D3FBFBA2FA92F9C
:2001A000982F8827BC01CD01620F711D811D911D43E0660F771F881F991F4A95D1F7089522
:2001C000CF92DF92EF92FF92CF93DF93D3DFEB0188ECC82ED12CE12CF12CCCDF6C1B7D0B7E
:2001E000683E7340A0F0C114D104E104F10439F4DF91CF91FF90EF90DF90CF90089581E0BB
:20020000C81AD108E108F108C851DC4FE6CFC114D104E104F10409F7EBCF4F925F926F9237
:200220007F928F929F92AF92BF92EF92FF92CF93DF93FC0195854285208531858780E92E8C
:20024000F12CA385B0E08485E82FF0E0941360C0CB0163E070E005DA820F931FEC01CE0DC9
:20026000DF1D2881A80FB91FFC90E80FF91FC081882009F442C0912CB12CA12C622F70E07F
:20028000762F6627072E000C880B990BA501940112DA3901552444246F2D70E0762F662754
:2002A000072E000C880B990BA501940104DAB42FA32F922F8827482A592A6A2A7B2A6C2FBF
:2002C00070E0762F6627072E000C880B990BA5019401F1D9C301B201622B732B842B952B0E
:2002E000DF91CF91FF90EF90BF90AF909F908F907F906F905F904F9008956F2D70E090E06F
:2003000080E0982F872F762F6627822B6C2BE8CFCB01880F991F880F991F820F931FE80E30
:20032000F91EE7013881EC01C40FD11DF880A80FB91FCC91E80FF91FE080882009F447C0D8
:20034000912CB12CA12C632F70E0762F6627072E000C880B990BA5019401ADD9722E6624BF
:20036000552444246F2D70E0762F6627072E000C880B990BA50194019ED9A9013327222707
:20038000422A532A642A752A6E2D70E0762F6627072E000C880B990BA50194018CD9422AA6
:2003A000532A642A752A6C2F70E0762F6627072E000C880B990BA50194017DD9942F832FF8
:2003C000722F6627642975298629972989CF6F2D70E090E080E0CB0177276627932B6E29F5
:2003E0007C2B7ECF4F925F926F927F92BF92CF92DF92EF92FF920F931F93CF93DF93FC01CB
:200400007B0189019A01C901AA27BB27C82E412E522E632E7724D42CB02E4781442381F02F
:20042000C42FD0E090E0BE011CD9C92E842D90E0BE0117D9D92E802F90E0BE0112D9B92E77
:20044000C585A085B1858285C81322C0C70163E070E007D9A80FB91FC285CA0FDB2FD11D51
:20046000C882C385CA0FDB2FD11DD8828485A80FB11DBC92DF91CF911F910F91FF90EF90B5
:20048000DF90CF90BF907F906F905F904F900895EE0CFF1CEE0CFF1CAE0DBF1D032F11279B
:2004A00022273327902F442321F0842F90E0B801D8D8CA0FDB2FD11D9883CECF8F929F92FB
:2004C000AF92BF92EF92FF920F931F93CF93DF93FC01E180F280E114F104D9F02115310561
:2004E00021F02E153F0508F479014A015B018C01D0E0C0E0F80181819281C817D90728F481
:20050000A5019401BE01C8016DDF2196EC16FD0689F7DF91CF911F910F91FF90EF90BF9013
:20052000AF909F908F900895CF92DF92EF92FF920F931F93CF93DF9300D000D000D01F9264
:20054000CDB7DEB78C0116DED8011E96CD90DD90ED90FC9051976C157D058E059F0528F463
:20056000F80166877787808B918BD8011E96CD90DD90ED90FC9051976C197D098E099F09DE
:200580006C32714081059105F0F2F894F801838194819A838983A085B185FD0131968C910A
:2005A0008B831F8298B3D80154968C91982B9C8398B3809589238D838D818E838B8187FFB2
:2005C00002C08C818E835C816D814B813E812F8189819A8158BB262F38BB00C046FD252F5E
:2005E00068BB00C058BB362F28BB00C045FD352F68BB00C058BB262F38BB00C044FD252FC4
:2006000068BB00C058BB362F28BB00C043FD352F68BB00C058BB262F38BB00C042FD252FA7
:2006200068BB00C058BB362F28BB00C041FD352F68BB00C058BB262F38BB00C040FD252F8B
:2006400068BB019758BB362F28BB419147FD352F68BB01F64B833E832F839A83898378947A
:2006600089DDF80166877787808B918B27960FB6F894DEBF0FBECDBFDF91CF911F910F91E5
:20068000FF90EF90DF90CF9008958091AE008823E1F3E091B000F0E0E757FF4F8081909104
:2006A000B0009F5F9F709093B0009091AE0091509093AE0008959091AB009031E1F3E091BA
:2006C000AC00F0E0E756FF4F80838091AC008F5F8F708093AC008091AB008F5F8093AB003F
:2006E000089580918700823899F4E0918600F0E0E559FF4F8081DFDF809186008F5F8093D4
:200700008600809186008C3020F11092860021C0809187008038F1F488E19AE00FB6F8947D
:20072000A89581BD0FBE91BD8091B8009091B900E091860021E02E0F20938600E80FF92FF3
:20074000F11D8081B8DF909186008091B7009817E0F6089580918700863831F7F0E0E0E054
:200760000995E2CF87FF09C08F7771F1813071F1823071F1833071F18FEF90E0FC01EA5C06
:20078000FE4F3491FC01E05DFE4F2491FC01E65DFE4FE491EE23B9F0332329F03130E1F4AA
:2007A0008AB58F778ABDF0E0EE0FFF1FEC5DFE4FA591B4918FB7611120C0F894EC9120955B
:2007C0002E232C938FBF089585E0D7CF82E0D5CF84E0D3CF83E0D1CF323019F48AB58F7D4A
:2007E000E1CF333021F480B78F7D80BFDCCF3430D1F68CB58F7D8CBDD6CFF894EC912E2BDC
:20080000E0CFCF93DF9387FF09C08F7779F1813079F1823079F1833079F18FEF90E0FC0157
:20082000E05DFE4F2491865D9E4FFC0184918823D1F090E0880F991FFC01E25EFE4FA591AC
:20084000B491FC01EC5DFE4FC591D491611116C09FB7F8948C91E22FE0958E238C932881BF
:20086000E223E8839FBFDF91CF91089585E0D6CF82E0D4CF84E0D2CF83E0D0CF8FB7F89455
:20088000EC91E22BEC938FBFEECF2F923F924F925F926F927F928F929F92AF92BF92CF9289
:2008A000DF92EF92FF920F931F93CF93DF9300D000D0CDB7DEB7FF24FA94F80E2FE02F15CA
:2008C000A0F0182FE2DE80938700F11056C0109286001092AD001092AC001092AB008091AD
:2008E00087008038C9F48FE7E6DE0F900F900F900F90DF91CF911F910F91FF90EF90DF90A9
:20090000CF90BF90AF909F908F907F906F905F904F903F902F90089580918700823811F43E
:200920008DE7E2CF80918700863811F489E7DCCF80918700809386009091860080916400CF
:20094000981710F0109286008091B8009091B900E091860021E02E0F20938600E80FF92F90
:20096000F11D8081A8DE909186008091B700981708F4BBCF10928600B8CF80918700811165
:20098000D0C183DE8F3008F0B0CFE82FF0E0E958FF4F12509081191708F4A7CF81508E3015
:2009A00008F0A3CFE82FF0E0E952FB4F0994EFC00CC017C01DC04EC027C02AC075C060C061
:2009C00052C0DEC0ECC001C10CC1E091C400F091C5004381548170E060E080859185A9D6EE
:2009E00084CF53DE8093630081E08093C6007DCF4CDE80936400813218F080E28093640042
:200A000081E08093C30071CF40DE80936200F8CF3CDE682F8093630080916400861708F4D0
:200A200064CF8091C4009091C50070E0FC01218132816217730750F4F0DB6093BF0070936F
:200A4000C0008093C1009093C200DACF60E070E0CB01F3CF1ADE182F18DE912F90936100DD
:200A600080936000CDCF11DE8093C1000EDE8093C0000BDE8093BF0008DE8093C200C0CFE0
:200A800004DE182F02DE082F00DEF82EFEDD2091640030E04F2D502F612F782F8091C4000B
:200AA0009091C5000BDD21CFF0DDE82E80936300809164008E1508F418CFE7DDF82EE5DD78
:200AC000082FE3DD182FE1DD482FA091C400B091C5002E2D30E011968D919C911297281763
:200AE000390708F002CF1796EC911797EE23A9F0F0E08F2D90E0BF01B4D5F92E802F90E0E0
:200B0000BF01AFD5092F812F90E0BF01AAD5192F842F90E0BF01A5D5492F1D96EC911D97F9
:200B20001896CD90DC9019971A968C911A97E8131CC0C90163E070E094D59601280F391F4D
:200B40001A96EC911A97E20FF32FF11DF0821B96EC911B97E20FF32FF11D00831C968C91D1
:200B6000280F311DF9011083C0CE220F331F220F331F2C0D3D1DE20FF32FF11D4083E0CFA9
:200B800084DD882341F060E084E0ECDD19DB81E08093BE00AACE61E084E0E4DDA6CE209182
:200BA000D0003091D1002115310511F424ED30E0CE010196821B7FDD88E19AE00FB6F894AE
:200BC000A89581BD0FBE91BDFFCFE091C400F091C5004381548170E060E080859185A9D574
:200BE000D6CFE090C400F090C50010E000E04E01F5E08F0E911CF701218132810217130719
:200C000008F0C5CFB80190E080E0CB017727662750E040E072D5CA01B901882799272AEF24
:200C200035E040E050E02ED5DC01CB019058AF4FBF4FCD01BB2797FDB095AB2F8E3FF1E0AE
:200C40009F0708F04AC0482F8F3F910508F463C02EEF281B822F60E04FEF682E712CC3016C
:200C6000B0E0A0E0DC0199278827C62ED12C1601512C412C82299329A429B529A42EB12C65
:200C8000A50170E060E0762F652F542F4427842B952BA62BB72B89839A83AB83BC83DE0160
:200CA0001196ED91F0E0E25EFF4F2491CD010197FC0120838A169B06A1F7F7018181928110
:200CC0000817190738F429813A814B815C81B801C70188DB0F5F1F4F8ECF8C3F43E09407F5
:200CE00060F462E0680F4FEF8D3FE2E09E0718F04CEF481B6FEF80E0B0CF8A3FF5E09F074F
:200D000069F06AEF681B8B3F44E0940740F48C5F6FEF40E0A2CF60E08FEF9FCF60E040E07B
:200D2000FBCF80918700882309F4DFCD80918700E090B700E81608F4D8CD80918700815036
:200D400080938600FA94FFEFFF1609F4CECD009186008091B8009091B900080F192F111D8A
:200D600094DCF8018083809186008F5F80938600809186008E1530F310928600E3CF63C48B
:200D80005AC41F920F920FB60F9211242F933F938F939F93AF93BF938091C8009091C90009
:200DA000A091CA00B091CB003091C70026E0230F2D3768F129E8230F0396A11DB11D209394
:200DC000C7008093C8009093C900A093CA00B093CB008091CC009091CD00A091CE00B0916F
:200DE000CF000196A11DB11D8093CC009093CD00A093CE00B093CF00BF91AF919F918F913F
:200E00003F912F910F900FBE0F901F9018950296A11DB11DD4CF1F920F920FB60F92112427
:200E20002F933F934F935F936F937F938F939F93AF93BF93EF93FF938091A9009091AA00B5
:200E40008230910509F493C0B0F40097A1F1019709F466C0FF91EF91BF91AF919F918F9182
:200E60007F916F915F914F913F912F910F900FBE0F901F9018958430910509F482C0D0F151
:200E8000059741F78091AE00803190F4E091AF008FB1F0E0E757FF4F80838091AF008F5F1D
:200EA0008F708093AF008091AE008F5F8093AE0084E090E018C08FB1882331F08FB18695F0
:200EC0009091B200891320C0789BF2CF8091AB00811107C0E091B500F091B600309709F0BD
:200EE000099581E090E09093AA008093A9001FB8B89A45C0E091B500F091B600309709F0AF
:200F000009958FB1882361F088EA8DB980E78EB91092B10085B790918800892B85BF9ACFF8
:200F20008091AB008823E1F0E091AD00F0E0E756FF4F80818FB98091AD008F5F8F708093F9
:200F4000AD008091AB0081508093AB0082E090E09093AA008093A900B89A80E78EB97ACFF5
:200F6000B8981FB88EE78EB988EA8DB9F6CF83E090E09093AA008093A900B8981FB88EE719
:200F8000EDCF85E090E09093AA008093A900B89880E78EB986B382FFFDCF80FD5BCF86B3D3
:200FA00085708430E1F3853009F054CFE091B300F091B400309709F4A7CF8091AE008823E6
:200FC00009F4A2CF8091AE0009959ECF1F920F920FB60F9211242F933F934F935F936F9382
:200FE0007F938F939F93AF93BF93EF93FF938091B100811107C085B780728093880085B7C3
:201000008F7D85BF1092AA001092A900B898B29929C08091B100882369F0E091B300F091FA
:20102000B400309739F08091AE00882319F08091AE00099588EF8DB981E08093B10080EFEB
:201040008EB9FF91EF91BF91AF919F918F917F916F915F914F913F912F910F900FBE0F90DE
:201060001F90189588EA8DB91092B10085B790918800892B85BFE3CF83E08ABD83BF789482
:2010800089B7826089BF80E48CBD8FEF8DBD87EC80BF86E886B914BE61E084E0B2DB60E0CE
:2010A00084E060DB88E19FE00FB6F894A89581BD0FBE91BD85B7877E85BF85B7806285BFDB
:2010C00016B890E080E0B7D28C3421F06CE490E080E0B9D281E090E053DE8A3289F582E0CF
:2010E00090E04EDE8093620083E090E049DEC82FD0E0DC2FCC27D0936100C093600084E065
:2011000090E03EDEC82BD0936100C093600085E090E036DE8093640086E090E031DE809381
:20112000C10087E090E02CDE8093C00088E090E027DE8093BF0089E090E022DE8093C200DD
:2011400085E190E053D1EC012091600030916100F090640018821F821E861F86188A198AC8
:20116000622F62956695669563706D87C9019927AC0134E0559547953A95E1F743704A87EE
:20118000959587959595879583708B8723702C87641357C063E070E0CF2CD12CC60161D265
:2011A0008C019C838B8322D199878887009709F44BC0A80170E060E0BCD2DA82C98283E0E3
:2011C00090E09E838D838881882331F061E083E018DB60E083E0C6DA88E390E09B8B8A8BA9
:2011E00088E08C8BD093C500C093C4008D819E8197FD05C061E005DB60E08D81B3DA81E04E
:201200008883888599859093B9008093B8008B818093B70010E000E00F15D8F42091BF00EB
:201220003091C0004091C1005091C20089819A810817190718F4B801CE01D4D80F5F1F4F78
:20124000EBCF64E070E0A8CF1C821B821A821982B6CFB6D788859985892B11F0CE0164D959
:20126000809162001092B0001092AF001092AE001092AD001092AC001092AB008093B20059
:2012800087B3856087BBC29AC09AB89888EA8DB980EF8EB91092B10085E494E09093B40072
:2012A0008093B30081E793E09093B6008093B5008FB7F894C090C800D090C900E090CA009F
:2012C000F090CB008FBF8091C6008823C9F01092C600C091C400D091C5000091640010E0B2
:2012E0006091630070E089819A816817790708F043C0CE0192D7AB01BC019801CE01DED86C
:201300008091C300882309F43BC01092C3006AE281E090E034DD6091620082E090E02FDD92
:201320006091610083E090E02ADD6091600084E090E025DD6091640085E090E020DD609142
:20134000C10086E090E01BDD6091C00087E090E016DD6091BF0088E090E011DD6091C2005A
:2013600089E090E00CDD88E19AE00FB6F894A89581BD0FBE91BDFFCF40E050E0BA01BDCF7C
:201380008091BE00882361F01092BE008091C4009091C500FC0120853185232B09F0C4D82C
:2013A0008091BA009091BB00A091BC00B091BD00A7019601281B390B4A0B5B0BDA01C90175
:2013C00084369105A105B10540F0C092BA00D092BB00E092BC00F092BD0085B7806285BF39
:2013E000889585B78F7D85BFA89562CF0F931F93CF93DF938230910510F482E090E0E0911F
:20140000D200F091D30030E020E0B0E0A0E0309799F42115310509F44AC0281B390B2430E4
:201420003105D8F58A819B816115710589F1FB0193838283FE0111C040815181028113818B
:2014400048175907E0F04817590799F4109761F012960C93129713961C933296CF01DF9169
:20146000CF911F910F9108950093D2001093D300F4CF2115310551F04217530738F0A9014F
:20148000DB019A01BD01DF01F801C1CFEF01F9CF9093D3008093D200CDCFFE01E20FF31F7D
:2014A000819391932250310939832883D7CF2091D0003091D100232B41F4209167003091CC
:2014C00068003093D1002093D00020916500309166002115310541F42DB73EB7409169009C
:2014E00050916A00241B350BE091D000F091D100E217F307A0F42E1B3F0B2817390778F08E
:20150000AC014E5F5F4F2417350748F04E0F5F1F5093D1004093D000819391939FCFF0E06C
:20152000E0E09CCFCF93DF930097E9F0FC01329713821282A091D200B091D300ED0130E038
:2015400020E01097A1F420813181820F931F2091D0003091D1002817390709F061C0F0938A
:20156000D100E093D000DF91CF910895EA01CE17DF07E8F54A815B819E0141155105B1F7BD
:20158000E901FB83EA8349915991C40FD51FEC17FD0761F4808191810296840F951FE901B3
:2015A00099838883828193819B838A83F0E0E0E012968D919C9113970097B9F52D913C91C5
:2015C0001197CD010296820F931F2091D0003091D1002817390739F6309751F51092D30077
:2015E0001092D200B093D100A093D000BCCFD383C28340815181840F951FC817D90761F44C
:201600004E5F5F4F88819981480F591F518340838A819B81938382832115310509F0B0CFC0
:20162000F093D300E093D2009ECFFD01DC01C0CF13821282D7CFE199FECF9FBB8EBBE09A05
:2016400099278DB30895262FE199FECF1CBA9FBB8EBB2DBB0FB6F894E29AE19A0FBE019644
:2016600008950024552704C0080E591F880F991F009729F076956795B8F37105B9F7802D57
:20168000952F0895EE27FF27AA27BB2708C0A20FB31FE41FF51F220F331F441F551F969514
:2016A00087957795679598F37040A9F7009799F7BD01CF010895A1E21A2EAA1BBB1BFD0175
:2016C0000DC0AA1FBB1FEE1FFF1FA217B307E407F50720F0A21BB30BE40BF50B661F771F80
:2016E000881F991F1A9469F760957095809590959B01AC01BD01CF010895052E97FB16F406
:2017000000940FD057FD05D0D6DF07FC02D046F408C050954095309521953F4F4F4F5F4F92
:20172000089590958095709561957F4F8F4F9F4F0895DC0101C06D9341505040E0F708956D
:20174000F894FFCFD20020FF200000D40080007D4C000000000000000000000000000101FF
:2017600002010105040401000000FFFFFFFFFFFFFFFFFFFFFFFFFFFFFFFFFFFFFFFFFFFF6D
:20178000FFFFFFFFFFFFFFFFFFFFFFFFFFFFFFFFFFFFFFFFFFFFFFFFFFFFFFFFFFFFFFFF69
:2017A000FFFFFFFFFFFFFFFFFFFFFFFFFFFFFFFFFFFFFFFFFFFFFFFFFFFFFFFFFFFFFFFF49
:2017C000FFFFFFFFFFFFFFFFFFFFFFFFFFFFFFFFFFFFFFFFFFFFFFFFFFFFFFFFFFFFFFFF29
:2017E000FFFFFFFFFFFFFFFFFFFFFFFFFFFFFFFFFFFFFFFFFFFFFFFFFFFFFFFFFFFFFFFF09
:20180000FFFFFFFFFFFFFFFFFFFFFFFFFFFFFFFFFFFFFFFFFFFFFFFFFFFFFFFFFFFFFFFFE8
:20182000FFFFFFFFFFFFFFFFFFFFFFFFFFFFFFFFFFFFFFFFFFFFFFFFFFFFFFFFFFFFFFFFC8
:20184000FFFFFFFFFFFFFFFFFFFFFFFFFFFFFFFFFFFFFFFFFFFFFFFFFFFFFFFFFFFFFFFFA8
:20186000FFFFFFFFFFFFFFFFFFFFFFFFFFFFFFFFFFFFFFFFFFFFFFFFFFFFFFFFFFFFFFFF88
:20188000FFFFFFFFFFFFFFFFFFFFFFFFFFFFFFFFFFFFFFFFFFFFFFFFFFFFFFFFFFFFFFFF68
:2018A000FFFFFFFFFFFFFFFFFFFFFFFFFFFFFFFFFFFFFFFFFFFFFFFFFFFFFFFFFFFFFFFF48
:2018C000FFFFFFFFFFFFFFFFFFFFFFFFFFFFFFFFFFFFFFFFFFFFFFFFFFFFFFFFFFFFFFFF28
:2018E000FFFFFFFFFFFFFFFFFFFFFFFFFFFFFFFFFFFFFFFFFFFFFFFFFFFFFFFFFFFFFFFF08
:20190000FFFFFFFFFFFFFFFFFFFFFFFFFFFFFFFFFFFFFFFFFFFFFFFFFFFFFFFFFFFFFFFFE7
:20192000FFFFFFFFFFFFFFFFFFFFFFFFFFFFFFFFFFFFFFFFFFFFFFFFFFFFFFFFFFFFFFFFC7
:20194000FFFFFFFFFFFFFFFFFFFFFFFFFFFFFFFFFFFFFFFFFFFFFFFFFFFFFFFFFFFFFFFFA7
:20196000FFFFFFFFFFFFFFFFFFFFFFFFFFFFFFFFFFFFFFFFFFFFFFFFFFFFFFFFFFFFFFFF87
:20198000FFFFFFFFFFFFFFFFFFFFFFFFFFFFFFFFFFFFFFFFFFFFFFFFFFFFFFFFFFFFFFFF67
:2019A000FFFFFFFFFFFFFFFFFFFFFFFFFFFFFFFFFFFFFFFFFFFFFFFFFFFFFFFFFFFFFFFF47
:2019C000FFFFFFFFFFFFFFFFFFFFFFFFFFFFFFFFFFFFFFFFFFFFFFFFFFFFFFFFFFFFFFFF27
:2019E000FFFFFFFFFFFFFFFFFFFFFFFFFFFFFFFFFFFFFFFFFFFFFFFFFFFFFFFFFFFFFFFF07
:201A0000FFFFFFFFFFFFFFFFFFFFFFFFFFFFFFFFFFFFFFFFFFFFFFFFFFFFFFFFFFFFFFFFE6
:201A2000FFFFFFFFFFFFFFFFFFFFFFFFFFFFFFFFFFFFFFFFFFFFFFFFFFFFFFFFFFFFFFFFC6
:201A4000FFFFFFFFFFFFFFFFFFFFFFFFFFFFFFFFFFFFFFFFFFFFFFFFFFFFFFFFFFFFFFFFA6
:201A6000FFFFFFFFFFFFFFFFFFFFFFFFFFFFFFFFFFFFFFFFFFFFFFFFFFFFFFFFFFFF5EC363
:201A80000EC01EC01DC01CC01BC01AC019C018C017C016C015C014C013C012C011C011247A
:201AA0001FBECFE5D2E0DEBFCDBF21E0A0E6B0E001C01D92AB32B207E1F75AD198C258C127
:201AC000DFCF90912A01903409F4FFCFE0912901EF5FEF73E0932901F0E0E751FF4F80833C
:201AE0009F5F90932A010895CF92DF92FF920F931F93CF93DF93CDB7DEB7CC50CDBF209100
:201B0000A6009091A500A9EAB0E0322F381B832FAD01821313C08093A6009093A500809128
:201B2000A900853809F494C0C0F4833809F467C008F06EC0823819F18FEF80C0211101C0C0
:201B4000FFCF9F5F9F73E92FF0E0EB59FF4F3081FA013193AF012150DCCF893809F4E1C092
:201B60008A3809F4F1C0863839F789E7AADFE091A700F091A80083818960838336C08DE770
:201B8000898384E58A8381E08B8387E08C8388E48D8382E28E838AE18F8380E88887EFE723
:201BA000FAE184918987EEE7FAE184918A8789E0F0E0E0E08093570084918B8781B78C877A
:201BC000E091A700F091A8008381816083838E010F5F1F4F6E01FDE0CF0ED11CF80181914D
:201BE0008F016FDF0C151D05C9F7C45FCDBFDF91CF911F910F91FF90DF90CF9008958CE7C8
:201C000060DFE091A700F091A80083818460B5CFE091A700F091A8008091AA009091AB0010
:201C2000982789279827807C918380831091AA008091AB00180F8BE744DF812FC45FCDBF41
:201C4000DF91CF911F910F91FF90DF90CF9039CF8091A7009091A800FC01608171813281FB
:201C6000FB01E30FF11D309709F03AC021E04FE35DEC0A0120935700E89511244091AB00EF
:201C80002091AA00240F3E5FFC01328307EC10E0FC01328114964C91149713965C91139762
:201CA000FB01E30FF11DD42EC52EFF24F3940601F0925700E8951124450F240F3E5FFC01D6
:201CC000328312960A171B0719F71091CA00211729F0FC0123812460238310E08AE7ACCFF1
:201CE00009EC10E020E0FC01328112964C91129711965C911197FB01E30FF11DD42EC52EF4
:201D0000FF24F3940601F0925700E8951124450F240F3E5FFC01328312960A171B0719F7B6
:201D2000D4CF6091AC001091AA008091AB00180F160F8091AA009091AB009827892798275B
:201D4000917043D186E778CF1091AA00F090AB008091AA009091AB0098278927982791708E
:201D60002CD1082F1F0D180F85E7ABDE802F64CFCF93DF93CDB7DEB7C450CDBFC4B614BE2C
:201D800081B5886181BD87E081BDF894D1B681B7845B81BF10922901109261001092A600C0
:201DA000109260001092A50087B3856087BBC09AC29AB89888EA8DB980E78EB984E79DE025
:201DC000909364008093630081E187BFE895CE0101969093A8008093A7001A8219821B8222
:201DE0001C8210E0EE24EA94F12C0AE0779B0FC06F9B0DC0B89810926200B29B02C0B09B58
:201E0000FCCFB09915C088EF8DB980EF8EB9769B4EC06E9B4CC080916200823009F4A9C0A7
:201E200048F48823F9F0813009F482C0769A34C088EAEACF843009F4A2C080F18530B1F7D2
:201E4000E0916000EF5FEF73E09360008FB1F0E0EB59FF4F80838091A6008F5F8093A6002B
:201E600084E014C08FB1882329F08FB18695813109F07CC0789BF4CFE0916300F091640055
:201E8000309719F08091A600099581E0809362001FB8B89A8EE78EB910E009C08FB18823BE
:201EA00009F446C088EA8DB980E78EB911E0E091A700F091A800838180FF66C0112309F4AD
:201EC00095CF83FF04C0D1BEEFE3FDE00995E091A700F091A800838182FF0EC0E0E8FAE145
:201EE000E054F10983E080935700E8953097C1F7D1BEE0E4FDE00995A091A700B091A8005C
:201F000012968C911297803489F4ED91FC911197E0388AE1F80750F483E080935700E8955F
:201F200085E080935700E89512961C9210E05ECFE0916100809129018E17A1F0EF5FEF73EF
:201F4000E0936100F0E0E751FF4F80818FB980912A01815080932A0182E080936200B89A9A
:201F600080E799CF1FB8B8988EE78EB988EA8DB9F7CF83E0809362001FB8B8988BCF85E073
:201F800080936200B898ECCFE114F10421F0E1E0EE1AF1082BCFCC2019F0002329F0015088
:201FA000EE24EA94FE2C22CFD1BEEFE3FDE00995EE24EA94FE2C0FEF19CFE199FECF9FBB59
:201FC0008EBBE09A99278DB30895262FE199FECF9FBB8EBBE09A01970DB2021639F01CBA7A
:121FE0002DBB0FB6F894E29AE19A0FBE0895F894FFCFFB
:00000001FF
